:020000040800F2
:10000000F8080020890100088127000881240008E1
:100010007D27000845020008D128000800000000E4
:10002000000000000000000000000000A127000800
:100030006D0200080000000085270008A5270008C1
:10004000A3010008A3010008A3010008A301000800
:10005000A3010008A3010008A3010008A3010008F0
:10006000A3010008A3010008A30100084902000839
:10007000A301000855020008A3010008A30100081D
:10008000A301000861020008A3010008A301000801
:10009000A3010008A3010008A3010008A3010008B0
:1000A000A3010008A3010008A3010008A3010008A0
:1000B000A3010008AD270008A3010008A301000860
:1000C000A3010008A3010008A30100088927000874
:1000D000A3010008C5280008A3010008A301000827
:1000E000A3010008A3010008A301000800F002F822
:1000F00000F03AF80AA090E8000C82448344AAF188
:100100000107DA4501D100F02FF8AFF2090EBAE885
:100110000F0013F0010F18BFFB1A43F0010318473B
:100120009C280000BC280000103A24BF78C878C181
:10013000FAD8520724BF30C830C144BF04680C60ED
:10014000704700000023002400250026103A28BF35
:1001500078C1FBD8520728BF30C148BF0B60704739
:100160001FB51FBD10B510BD00F031F81146FFF7E7
:10017000F7FF02F0AFFB00F04FF803B4FFF7F2FF18
:1001800003BC00F057F800000948804709480047C1
:10019000FEE7FEE7FEE7FEE7FEE7FEE7FEE7FEE737
:1001A000FEE7FEE704480549054A064B7047000094
:1001B000A9270008ED000008F8020020F808002038
:1001C000F8040020F8040020704770477047754617
:1001D00000F02CF8AE4605006946534620F00700B3
:1001E000854618B020B5FFF7DDFFBDE820404FF091
:1001F00000064FF000074FF000084FF0000BAC4630
:10020000ACE8C009ACE8C009ACE8C009ACE8C0097A
:1002100021F007018D46704710B50446AFF300800A
:100220002046BDE81040FFF7A8BF00000048704717
:100230001000002001491820ABBEFEE72600020096
:1002400070470000FEE7000040F2A000C2F200008C
:1002500000F040BA40F22810C2F2000000F03ABAB2
:1002600040F2E400C2F2000000F034BA704700002F
:10027000EFF3108072B600BFFEE7000010B581B04A
:100280000022009290F82420012A03D1022108467E
:1002900001B010BD4B680122062B80F8242017D82E
:1002A000D0F800C003EB83035A1F1F23DCF834E0AF
:1002B00003FA02F40B682EEA040403FA02F2224362
:1002C000CCF83420092B03EB430219D936E000BFE8
:1002D000D0F800C00C2B03EB83021DD8233A1F2358
:1002E000DCF830E003FA02F40B682EEA040403FAA7
:1002F00002F22243CCF83020092B03EB43021DD835
:10030000DCF81030072489689440A34391401943D6
:10031000CCF81010002130E0413A1F23DCF82CE02B
:1003200003FA02F40B682EEA040403FA02F22243F1
:10033000CCF82C20092B03EB4302E1D9DCF80CE0CC
:100340001E3A0724896894402EEA0404914023F061
:1003500001022143102ACCF80C100DD142F20841C1
:10036000C4F20101A1F1080294450DD0816A41F067
:1003700020018162012100E00021002280F8242078
:10038000084601B010BD00BF0A68120230D40A68E6
:10039000102B42F400020A602CD140F20801C2F294
:1003A000000109684DF68362C4F21B32A1FB021200
:1003B000910C01EB8101490000910099E1B1009994
:1003C000013900910099C9B1009901390091009952
:1003D000B1B1009901390091009999B100990139A1
:1003E0000091009900294FF00001E8D1C5E700BF56
:1003F0000021C2E70021C0E70021BEE70021BCE7E1
:100400000021BAE70021B8E7B0B5002800F0A880C5
:100410000446806A20B121688868C0070BD114E0C7
:100420000020E06284F82400204600F09BF8216858
:100430008868C00709D0886820F00100886000F053
:100440008DFB21688A68D20726D1A06AC0063AD4FB
:10045000A06A41F2021290430230A062E069D4E93E
:10046000013240EA030C531EB3FA83F35D091346CD
:10047000B2F5807F18BF2B02207D257B01284CEA36
:10048000450030D135B3A56A45F02005A562E56A7F
:1004900045F00105E56226E0054602E08868C007F0
:1004A000D3D000F05BFB401B21680328F6D388689B
:1004B000C007F3D0A06A40F01000A062E06A40F0EC
:1004C0000100E062A06AA06A40F01000A062012072
:1004D000B0BD00BFD4F818C04EF60005CFF6FF75CA
:1004E00005EB4C352B434D68B2F5807F25F469450B
:1004F00043EA05034B608B684FF2FD75CFF6E1755B
:1005000003EA050343EA00038B6001D0012A07D107
:1005100022690023CFF6F07303EB025201E000BF23
:100520000022CB6A23F470031A43CA62896840F63A
:10053000FE62CFF61F721140814207D10020E062B7
:10054000A16A012262F30101A162B0BDA06A40F07C
:10055000100020F00200A062E06A40F00100E062BA
:100560000120B0BDB0B582B00446006842F200413F
:10057000C4F20101884201D002B0B0BD41F21800BE
:10058000C4F20200016840F2A00541F4007101606C
:100590000068C2F2000500F4007001900198082084
:1005A000C4F202000021C5E9000105F10800802223
:1005B0004FF400734FF4006C4FF0200E80E80E50A3
:1005C0002846E96100F056F9002818BFFFF750FEF1
:1005D00025626C6202B0B0BD014690F8210002288D
:1005E00016D10868D1E90FC3026822F00E0202603A
:1005F000026822F001020260012000FA03F2CCF846
:10060000042081F821000020002281F8202070477A
:10061000042088630120002281F820207047000018
:1006200080B590F82110022924D10268116821F0C8
:100630000E0111602F211368C4F202018A4240F2B8
:100640000401C4F2020123F00103136016DD30231C
:10065000C4F202039A421DD04423C4F202039A4218
:100660001CD05823C4F202039A421DD14FF48033A8
:1006700022E000BF04218163012080BD0823C4F271
:1006800002039A420ED01C23C4F202039A420BD1F9
:10069000102311E04FF480730EE000BF4FF480533D
:1006A0000AE000BF012307E001F1680C4FF08073FE
:1006B000624508BF4FF480130B60012180F82110C0
:1006C000426B002180F820100AB1904700210846B3
:1006D00080BD000010B5D0E90FCE0168DCF8003015
:1006E0000A6823FA0EF35C072AD512F0040427D017
:1006F0000A68920603D40A6822F004020A602F22D4
:10070000C4F20202914240F20402C4F202025BDD32
:100710003023C4F20203994272D04423C4F202038C
:10072000994273D05823C4F20203994240F07A8070
:100730004FF480231360C16A002940F098806FE075
:100740009C0727D512F0020424D00A68920606D42A
:100750000A6822F00A020A60012280F821202F2272
:10076000C4F20202914240F20402C4F202023BDDF2
:100770003023C4F20203994260D04423C4F202033E
:1007800099425FD05823C4F20203994260D14FF4DA
:10079000003365E01B0743D512F0080208BF10BD07
:1007A0000A6822F00E020A60012101FA0EF2CCF86A
:1007B0000420816380F82110016B0022002980F859
:1007C000202054D12CE000BF0823C4F20203994238
:1007D00022D01C23C4F20203994223D14023136088
:1007E000C16A002943D11BE00823C4F202039942E5
:1007F0002CD01C23C4F20203994229D120232FE0DC
:100800004FF480631360C16A89BB09E04FF48043F1
:100810001360C16A59BB03E004231360C16A31BB92
:1008200010BD00BF02F168044FF08063A14208BF11
:100830004FF480031360C16AC9B9F1E74FF4007344
:100840000EE000BF4FF400530AE000BF022307E0B0
:1008500002F168044FF00073A14208BF4FF4001387
:100860001360816A0022002980F82020D8D0BDE8DA
:1008700010400847014600284FF0010008BF7047AC
:100880002DE9F043D1F800C04FF6F873CBF6FD73B5
:100890004CF6CD426344CCF6CC42A3FB02236FF06E
:1008A000030707EA93030027C4F2020701F10C09CA
:1008B000C1E90F730223D1E9012E99E87002D1F842
:1008C0001C8081F82130DCF8003043F6F077BB4320
:1008D0001A4342EA0E0222432A43324342EA090201
:1008E00042EA0802CCF8002000228A6381F8210045
:1008F00081F820200020BDE8F0437047B0B50446E1
:1009000000F02CF9054640F20000C2F20000007829
:10091000611C18BF044400BF00F020F9401BA04236
:10092000FAD3B0BD2DE9F04F82B00E68002E00F072
:10093000038141F20042C4F20102042340F2004E5E
:10094000904208BF03234FF6FF7CC4F2010E0093D0
:1009500000240123C1F2100C4FF0000A4FF00009EF
:1009600049E000BF012704F00C030F229A402BEA54
:10097000020207FA03F34FEA9A051A4346F82520C4
:10098000D1F804B040F20C455FEACB22DEF8082033
:1009900054BF22EA080242EA0802C4F20105CEF876
:1009A00008202A685FEA8B2354BF22EA080242EA41
:1009B00008022A605FEA8B33DEF8042054BF22EA83
:1009C000080242EA08025FEACB33CEF80420DEF8E0
:1009D00000204FF0010354BF22EA080242EA080255
:1009E000CEF800200E680AF1010A36FA0AF204F184
:1009F000040400F0A18003FA0AF816EA080FF1D007
:100A00004E68664512DC122E56D8DFE806F0350B2C
:100A10004549555555555555555555555555554DAA
:100A2000510000BFD1F80C9046E000BF4FF6FF72B6
:100A3000C1F2210296420FDC0022C1F2110296425D
:100A40001AD00022C1F21202964215D00022C1F241
:100A50002102964210D02FE00022C1F222029642DB
:100A60000AD00022C1F23102964205D00022C1F222
:100A70003202964220D100BF8A684AB1012A14BFCF
:100A8000C0F81480C0F810804FF0080914E000BFCF
:100A90004FF0040910E000BFCA6802F108090BE03A
:100AA0004FF0000908E000BFCA6802F1040903E042
:100AB000CA6802F10C0900BF22460646BAF1080FC7
:100AC00024BF203A043637680F25954027EA0505EC
:100AD00009FA02F22A433260CA79D2067FF582AF60
:100AE00041F21803C4F202031A68AEF57E7642F0B2
:100AF00001021A601A6802F001020192019A2AF0BA
:100B0000030256F802B040F60002C4F2010290421D
:100B100010D040F60042C4F2010290423FF422AFEE
:100B200041F20002C4F20102009F904208BF022776
:100B300019E700BF002716E702B0BDE8F08F0000FC
:100B4000C26802EA0103914341EA0341016170472F
:100B5000002A08BF090401617047000040F2F0203C
:100B6000C2F200000068704770B5B8B3044690F850
:100B70003D0028B9002084F83C00204600F0B0F881
:100B8000242084F83D002068016821F00101016003
:100B9000016841F400410160016821F400410160F5
:100BA00000F014FB48F28041C0F21E0140F6001331
:100BB000D4F804E088424FF00001C0F23D0348F24F
:100BC000A16C4FF0000238BF01219842C0F2010C25
:100BD00038BF0122E64538BF0A460AB1012070BD80
:100BE0004DF68361C4F21B31A0FB01122168950C04
:100BF0004B684FF4967623F03F0343EA92437543E4
:100C000044F6D3564B60C1F262060B6AA5FB06564A
:100C1000B50923F03F03E64538BF950C6A1C1A431B
:100C20000A62CA6948F2A0664CF6FF73C0F2010678
:100C3000B64522EA03020BD801384FEA4E03B0FB57
:100C4000F3F001306FF31F30042898BF04201EE03A
:100C5000A368013863B119230EFB03F3B0FBF3F073
:100C600001306FF31F3078B100F5804008E000BF1D
:100C70000EEB4E03B0FBF3F001306FF31F3028B1E1
:100C800000F5004003E000BF012000E00120104318
:100C9000C8610868D4E9072320F0C0001043184356
:100CA0000860886848F2FF3204F10C0690434CCE8D
:100CB00018431043A5698860C86820F0FF003043DE
:100CC0002843C860086840F0010008600020202127
:100CD000206484F83D10206384F83E0070BD00005D
:100CE00070B586B00446006845F20041C4F20001C8
:100CF00000268842049601D006B070BD41F2180566
:100D0000C4F20205286802A940F00800286028689B
:100D100000F00800019001984FF4407002901220FA
:100D200003900320059040F60040C4F20100FFF755
:100D3000F9FD0420C4F201000168202241F0E061C5
:100D400041F0020101606868802140F40010686091
:100D5000686840F2E40500F40010019001988020DA
:100D6000C2F20005C4F20200C5E900062846C5E942
:100D70000261C5E90466C5E90626FFF77BFD002888
:100D800018BFFFF775FAA5636C6206B070BD00006E
:100D900040F2000040F2F021C2F20000C2F2000175
:100DA00000780A68104408607047000080B542F27D
:100DB0000000C4F20200016841F01001016003204C
:100DC00000F08EF80F2000F005F800F027F8002062
:100DD00080BD000070B540F20006C2F2000640F28D
:100DE00008013278C2F200014FF47A730968B3FB4C
:100DF000F2F20446B1FBF2F1084600F017FD0F2CA9
:100E00004FF0010508D838B94FF0FF3021460022D5
:100E1000002500F039F87460284670BD82B041F2B8
:100E20001800C4F202000168022241F001010160D1
:100E3000016801F0010101910199416841F080517F
:100E40004160406800F08050009000980420C4F297
:100E50000100016862F31A61016002B0704700008E
:100E6000002848BF7047C1B200F01F00012202FAFB
:100E700000F04EF20012CEF2000242EAD10121F05F
:100E8000030108607047000010B54EF60C5CCEF20E
:100E9000000CDCF80030C3F3022E8EF00704042CA3
:100EA00028BF0424BEF103034FF0FF3E0EFA04F402
:100EB00038BF0023A14399400EFA03F39A4311432C
:100EC00000F00F0200F160430901043A03F56443A6
:100ED0006244002848BF02F10C03197010BD0000E5
:100EE0004EF60C51CEF200010A684FF6FF031A408D
:100EF00060F30A2242F0806040F0FD7008607047A5
:100F00002DE9F04182B00446007841F21C06C0078A
:100F1000C4F202064AD0306810F0805808D1306818
:100F200040F080503060306800F0805001900198AF
:100F300047F20007C4F200073868C00512D43868C9
:100F400040F480703860FFF709FE05463868C00538
:100F500008D4FFF703FE401B6428F7D9032002B032
:100F6000BDE8F081706810F4407012D0616801F43F
:100F7000407188420DD0706840F24042C4F2422273
:100F8000012320F4407113600023C00713607160D7
:100F90002AD17068616820F440700843B8F1000FEE
:100FA000706003D1306820F0805030602068810785
:100FB00007D556F8181CA26821F44041114346F8A1
:100FC000181CC00604D4002002B0BDE8F08100BFA8
:100FD00056F8180CE16820F48000084346F8180C15
:100FE000002002B0BDE8F081FFF7B8FD054641F2F0
:100FF000883700BF70688007CBD4FFF7AFFD401B78
:10100000B8424FF00300F5D9EBE700002DE9F043BB
:1010100081B0002800F0858042F20008C4F2020886
:101020000446D8F800000D4600F0070088420CD2B4
:10103000D8F8000020F007002843C8F80000D8F8CE
:10104000000000F00700A8426BD1206841F20409BB
:101050008107C4F2020917D5410705D5D9F8001058
:1010600041F4E061C9F80010010705D5D9F8001076
:1010700041F46051C9F80010D9F80010A26821F0BD
:10108000F0011143C9F80010C00741D1D8F80000A1
:1010900000F00700A8420CD9D8F8000020F00700A3
:1010A0002843C8F80000D8F8000000F00700A84264
:1010B00037D12068410707D5D9F80010E26821F43C
:1010C000E0611143C9F80010000708D5D9F8000005
:1010D000216920F4605040EAC100C9F80000D9F845
:1010E000002002F00C00082841F20020C0F27A0033
:1010F00050D142F6AA13C2F38341C0F60003595CF3
:10110000D2033BD440F60010C0F23D00484341E01A
:10111000606802280AD001282AD159F8041C8903E2
:1011200008D4012001B0BDE8F08300BF59F8041CC9
:101130008901F6D5D9F8001021F003010843C9F858
:101140000000FFF70BFD064641F28837D9F8000092
:10115000616800F00C00B0EB810F97D0FFF7FEFC48
:10116000801BB842F2D9032001B0BDE8F08300BF74
:1011700059F8041C8907D4D5DCE700BFD9F8002052
:1011800042F6A813C2F34042C0F600039A5C4843FB
:10119000B0FBF2F0D9F8001042F69012C1F303113F
:1011A000C0F60002515C40F2080220FA01F140F260
:1011B0000400C2F200000068C2F200021160FFF7F2
:1011C00009FE002001B0BDE8F083000040F20800F5
:1011D00041F20401C2F20000C4F202010068096891
:1011E00042F6A012C1F30221C0F60002515CC840D1
:1011F0007047000040F2080041F20401C2F2000012
:10120000C4F202010068096842F6A012C1F3C221CB
:10121000C0F60002515CC840704700002DE9F04163
:1012200082B0002868D00446007841F20006C0076A
:10123000C4F2020625D0706800F00C0004281BD010
:10124000706800F00C00082802D17068C00313D445
:101250006068002800F06881B0F5A02F00F07C8164
:10126000B0F5803F00F07C81306820F48030306041
:10127000306820F4802076E13068800301D5606812
:10128000D0B32078800718D5706810F00C0F07D005
:10129000706800F00C0008286ED17068C0036BD431
:1012A0003068800702D52069012825D1306861693E
:1012B00020F0F80040EAC1003060207800071FD419
:1012C0002078400732D4E56995B1706800F00C00D1
:1012D000082840F08F80012D0ED07068216A00F43C
:1012E00080328A4208D1616A00F47010884203D1CA
:1012F000002002B0BDE8F081012002B0BDE8F0811D
:10130000A069002862D00020C4F242200121C0F868
:101310008014FFF723FC0546706A800700F18C807B
:10132000FFF71CFC401B0228F6D92AE1F06910F0F7
:10133000805808D1F06940F08050F061F06900F009
:1013400080500090009847F20007C4F20007386808
:10135000C00529D4386840F480703860FFF7FEFB80
:10136000054600BF3868C0051ED4FFF7F7FB401BD9
:101370006428F7D905E100BF2069002840F2000089
:10138000C4F2422000F0828001210160FFF7E6FBF9
:10139000054600BF306880073FF588AFFFF7DEFBEA
:1013A000401B0228F6D9ECE0E068002800F08080BD
:1013B000052800F09780012800F09880306A20F01E
:1013C00001003062306A20F0040092E00020C4F294
:1013D00042200021C0F88014FFF7C0FB054600BF83
:1013E000706A80077FF56CAFFFF7B8FB401B0228DF
:1013F000F6D9C6E00027C4F2422700203866FFF77E
:10140000ADFB022D05460BD13068800140F1BE8056
:10141000FFF7A4FB401B02284FF00300F4D968E754
:10142000306880017FF564AFFFF798FB401B02280E
:101430004FF00300F4D95CE740F20800C2F200006C
:10144000006844F6D351C1F26201A0FB0101480AD1
:10145000019000BF00BF0198411E002801913FF498
:101460002FAF00BF0198411E002801913FF428AF23
:1014700000BF0198411E002801913FF421AF00BF39
:101480000198411E00280191E4D119E70021016073
:10149000FFF764FB054600BF306880077FF50DAF9E
:1014A000FFF75CFB401B02284FF00300F4D920E754
:1014B000306A20F001003062306A20F004003062AF
:1014C000FFF74CFB054641F2883700BF306A8007C2
:1014D00020D5FFF743FB401BB8424FF00300F5D97E
:1014E00007E700BF306A40F004003062306A40F025
:1014F00001003062FFF732FB054641F2883700BF3A
:10150000306A800706D4FFF729FB401BB842F7D9A1
:1015100037E000BFB8F1000F7FF4D5AEF06920F0DE
:101520008050F061CFE600BF306820F4803030603A
:10153000306820F480203060FFF710FB054600BFC4
:10154000306880037FF59DAEFFF708FB401B6428E1
:101550004FF00300F4D9CCE6306840F480203060CE
:10156000306840F480303060FFF7F8FA054600BF7D
:10157000306880033FF585AEFFF7F0FA401B642822
:10158000F6D9032002B0BDE8F08100BF206AB0F5B3
:10159000803F05D17168A26821F400311143716068
:1015A0007168626A21F4741111430843706001206C
:1015B0003866FFF7D3FA0446306880013FF598AEED
:1015C000FFF7CCFA001B02284FF00300F4D990E695
:1015D00070470000B0B584B0044600684168826876
:1015E00012F0400305D112F0010518BF11F04005BB
:1015F00012D1950708D511F0800505D0616C204601
:1016000004B0BDE8B040084712F0600F18BF11F0F9
:10161000200507D104B0B0BD216C204604B0BDE860
:10162000B0400847BBB194F85130032B08D10021DA
:101630000291C168029180680290029804B0B0BD26
:10164000636D43F00403636500230393C36803934E
:1016500083680393039B12F020020CD0626D42F06A
:10166000010262650022019282680192026822F002
:1016700040020260019A626D002ACBD0426889075D
:1016800022F0E00242604FF0010284F851201FD0A6
:10169000416842F2957521F003014160E06CC0F6AB
:1016A000000538B14563FEF7BBFF18B1606D40F02F
:1016B00040006065A06C0028ACD04563FEF7B0FF29
:1016C0000028A7D0606D40F04000606504B0B0BD58
:1016D000204604B0BDE8B040FFF77ABF70B538B11E
:1016E0000446406A30B10020206104F1140007E094
:1016F000012070BD6068B0F5827F03D004F11C004A
:10170000002101600026A66294F8510020B920460D
:1017100084F8506000F038F8022084F8510094E812
:10172000071001F48271036802F4044223F04003BD
:101730000360236911440CF40062114403F00202B7
:101740006369114403F00102A369E569114403F4DC
:101750000072114405F03802256A114405F0800238
:10176000A56A114305F4005211430160042101EA06
:1017700013414160C16921F40061C16101206665C6
:1017800084F85100304670BD70B586B0044640F60E
:101790000000C4F20100216800F5205200269142A9
:1017A000049601D006B070BD41F21801C4F20201E6
:1017B0000A6842F480520A600A6802F48052019278
:1017C000019A0A6842F004020A60096801F0040103
:1017D00001910199A0210291022103910321059118
:1017E00002A9FFF79FF840F228153020C2F2000549
:1017F000C4F202001021802285E843002846C5E992
:101800000326C5E90566EE61FFF734F8002818BF26
:10181000FEF72EFD232000210022A5646C62FFF755
:1018200033FB2320FFF71CFB06B070BD411E0020D8
:10183000B0EB116F1CBF012070474EF21002CEF2C8
:10184000000251604EF62351CEF20001F0230B70DE
:1018500007219060116070477047000070470000DA
:1018600010B590F83C20012A4FF0020233D080F8E6
:101870003D200268D2F804E0D2F808C00C682EF0CF
:101880007003234340F2FF74C4F20004A242536089
:101890000ADCB2F1804F13D040F20043C4F20003DF
:1018A0009A420DD011E000BF42F60043C4F201039A
:1018B0009A4205D040F60003C4F200039A4204D1D4
:1018C00049682CF08003194391600121002280F8BF
:1018D0003D1080F83C20104610BD0000002804BFD9
:1018E0000120704710B5044690F83D0028B900204B
:1018F00084F83C00204600F067F8022084F83D00A0
:10190000206840F2FF730268C4F2000342F6004C04
:101910009842C4F2010C15DCB0F1804F1AD040F2AD
:101920000041C4F20001884214D0984218DCB0F1A2
:10193000804F1DD040F20041C4F20001884217D010
:101940001AE000BF604505D040F60001C4F2000176
:101950008842EAD1A16822F070020A439842E6DD8B
:10196000604505D040F60001C4F20001884203D171
:10197000216922F440720A43A36922F08001D4F85D
:1019800004E0E268194360450160C262C0F828E0E3
:1019900002D16169CCF8301001214161002084F846
:1019A000461084F83E1084F83F1084F8401084F804
:1019B000411084F8421084F8431084F8441084F8ED
:1019C000451084F83D1010BD80B582B0006840F22B
:1019D0000041C4F2000188421CBF02B080BD41F248
:1019E0001C00C4F202000168002241F00201016003
:1019F0000068002100F00200019001981D20FFF70F
:101A000043FA1D2002B0BDE88040FFF729BA00006C
:101A100080B590F83C20012A4FF0020200F0C2800D
:101A200080F83D20D0F800C04FF67772DCF808301F
:101A300023EA0202CCF808200B684F2B28DC1F2B6E
:101A400044DD202B45D0302B43D0402B40F0AC80E0
:101A5000D1F804E0C968DCF82030DCF8202022F05E
:101A60000102CCF82020DCF8182022F0F00242EA33
:101A7000011123F00A0242EA0E02CCF81810CCF849
:101A80002020DCF8081041F0470121F0300180E00F
:101A90006F2B27DDB3F5005F48D0B3F5805F7AD0B8
:101AA000702B40F08180D1E901E3C968DCF808209F
:101AB00043EA0E0322F47F4243EA01211143CCF8AA
:101AC0000810DCF8081041F0770162E00BB1102B30
:101AD0006AD1DCF8081021F07001194341F00701C8
:101AE00057E000BF502B35D0602B5DD1D1F804E01A
:101AF000C968DCF82030DCF8202022F01002CCF895
:101B00002020DCF8182022F4704242EA013123F050
:101B1000A00242EA0E12CCF81810CCF82020DCF813
:101B2000081041F0670121F0100132E0D1E901E332
:101B3000C968DCF8082043EA0E0322F47F4243EA36
:101B400001211143CCF80810DCF8081041F4804161
:101B50001FE000BFD1F804E0C968DCF82030DCF8F1
:101B6000202022F00102CCF82020DCF8182022F0FE
:101B7000F00242EA011123F00A0242EA0E02CCF816
:101B80001810CCF82020DCF8081041F0570121F0A3
:101B90002001CCF808100022012180F83D1000211E
:101BA00080F83C10104680BD0122F5E77047000028
:101BB00010B5016804460869800744BFC8685FEA39
:101BC000807039D40869400744BFC8685FEA407034
:101BD0003ED40869000744BFC8685FEA007045D476
:101BE0000869C00644BFC8685FEAC0604AD4086993
:101BF000C0071CBFC8685FEAC07051D10869000601
:101C000044BFC8685FEA006052D40869400644BF18
:101C1000C8685FEA406053D40869800646BFC86858
:101C20005FEA806010BD6FF0200220460A61BDE8C7
:101C30001040FFF713BE00BF6FF0020008610120E3
:101C400020778869800743D02046FFF7AFFF45E043
:101C50006FF00400086102202077886910F4407F4B
:101C600040D02046FFF7A2FF42E000BF6FF008001F
:101C7000086104202077C86980073DD02046FFF71F
:101C800095FF3FE06FF01000086108202077C869D9
:101C900010F4407F3AD02046FFF788FF3CE000BFB9
:101CA0006FF001000861204600F03EF82168A5E7CA
:101CB0006FF0800008612046FFF7CEFD2168A4E7A1
:101CC0006FF040000861204600F030F82168A3E77B
:101CD000204600F025F8204600F024F82168002076
:101CE00020776FE7204600F01BF8204600F01AF836
:101CF0002168002020776CE7204600F011F820468C
:101D000000F010F821680020207769E7204600F0F5
:101D100007F8204600F006F821680020207766E7E3
:101D200070470000704700007047000070470000D7
:101D30007047000070470000B0B582B004460068EC
:101D40000168C368426901F02F05202D03F02005CA
:101D500006D12DB1204602B0BDE8B04000F032BD42
:101D60005FEA017C1EBF02F0010E03F4907212EBD9
:101D70000E0253D1226B012A05D111F0100218BFB7
:101D800013F0100236D10A0622D513F080021FD0BC
:101D900094F8411021293FD1A168B1F5805F03D1AA
:101DA0002169002900F07082216A4A1C22620978A8
:101DB0004160E18C01390A04E1842DD1C16821F030
:101DC0008001C160C16841F04001C16002B0B0BD96
:101DD000490621D513F040011ED0C16821F0400111
:101DE000C1602021204684F8411002B0BDE8B04017
:101DF00000F044BB0021019101680191416801910B
:101E000001994069400613D4A08DE18DE28D002A2E
:101E100018BF884240F0BA8102B0B0BDCA0718BFEF
:101E200013F4807240F0B6804A0700F1B980BEE03A
:101E3000E06B016849688AB2002AEDD0A38D9A420E
:101E4000EAD2E1858069202800F09C80206850E873
:101E5000030F216820F4807041E80302DAB12068A2
:101E600050E8030F216820F4807041E8030292B12A
:101E7000206850E8030F216820F4807041E80302D5
:101E80004AB1206850E8030F216820F4807041E8CF
:101E90000302002ADAD1206850E8050F216820F0FB
:101EA000010041E80502DAB1206850E8050F216819
:101EB00020F0010041E8050292B1206850E8050FCA
:101EC000216820F0010041E805024AB1206850E88D
:101ED000050F216820F0010041E80502002ADAD14F
:101EE000206850E8050F216820F0400041E8050215
:101EF000DAB1206850E8050F216820F0400041E881
:101F0000050292B1206850E8050F216820F04000DA
:101F100041E805024AB1206850E8050F216820F029
:101F2000400041E80502002ADAD1202084F842006E
:101F300000202063206850E8030F216820F0100083
:101F400041E80302DAB1206850E8030F216820F06D
:101F5000100041E8030292B1206850E8030F2168A5
:101F600020F0100041E803024AB1206850E8030F56
:101F7000216820F0100041E80302002ADAD1E06B6A
:101F8000FEF72AFB02206063A08DE18D401A81B22A
:101F9000204674E1626C42F0010262644A0706D591
:101FA000BEF1000F03D0626C42F0020262648A0745
:101FB00006D5BEF1000F03D0626C42F004026264E9
:101FC000BCF1000F09D545EA0E02B2FA82F25209BD
:101FD00003D1626C42F008026264626C002A3FF432
:101FE0001BAF11F0200118BF002D03D0204600F0D8
:101FF000E9FB20684069616C00F0400001F00801D5
:10200000401800F0B58000BF206850E8030F216839
:1020100020F4907041E80302BAB3206850E8030F3F
:10202000216820F4907041E8030272B3206850E800
:10203000030F216820F4907041E803022AB320685E
:1020400050E8030F216820F4907041E80302002A51
:10205000DAD11AE0206850E8050F216820F001006D
:1020600041E80502DAB1206850E8050F216820F048
:10207000010041E8050292B1206850E8050F21688F
:1020800020F0010041E805024AB1206850E8050F40
:10209000216820F0010041E80502002ADAD1206B16
:1020A000012824D1206850E8030F216820F0100097
:1020B00041E80302DAB1206850E8030F216820F0FC
:1020C000100041E8030292B1206850E8030F216834
:1020D00020F0100041E803024AB1206850E8030FE5
:1020E000216820F0100041E80302002ADAD1202004
:1020F00084F84200002020632068406940063FD5F4
:10210000206850E8050F216820F0400041E80502F2
:10211000DAB1206850E8050F216820F0400041E85E
:10212000050292B1206850E8050F216820F04000B8
:1021300041E805024AB1206850E8050F216820F007
:10214000400041E80502002ADAD1E06BC0B142F25A
:10215000B971C0F600014163FEF762FA00283FF44E
:102160005BAEE06B416B02B0BDE8B040084700BF1A
:102170002046FFF7DFFD0020606402B0B0BD00BF65
:10218000204602B0BDE8B040FFF7D4BD401A216838
:1021900051E8031F226821F4907142E80313DBB178
:1021A000216851E8031F226821F4907142E803136B
:1021B00093B1216851E8031F226821F4907142E82D
:1021C00003134BB1216851E8031F226821F4907179
:1021D00042E80313002BDAD1216851E8051F226879
:1021E00021F0010142E80513DBB1216851E8051F28
:1021F000226821F0010142E8051393B1216851E8FA
:10220000051F226821F0010142E805134BB1216846
:1022100051E8051F226821F0010142E80513002B57
:10222000DAD1202184F8421000212163216851E88D
:10223000031F226821F0100142E80313DBB121687B
:1022400051E8031F226821F0100142E8031393B103
:10225000216851E8031F226821F0100142E80313AE
:102260004BB1216851E8031F226821F0100142E8B8
:102270000313002BDAD1022281B22046626302B03E
:10228000BDE8B040FFF754BD216A31F8022B6FF36F
:102290005F22426021628CE5002804BF0120704764
:1022A00010B5044690F8410028B9002084F8400099
:1022B000204600F063F8242084F841002068D4E927
:1022C0000212C36823F40053C360036923F440532C
:1022D0001A430261D4E904231143C268194341F24D
:1022E0000C639A431143C1604169A26921F44071B2
:1022F000114343F60002C4F201029042416103D04F
:10230000FEF764FF02E000BFFEF774FF6268192168
:1023100048439100B0FBF1F048F21F51C5F2EB11B8
:10232000A0FB01235A094FF69C73C0F6FF7302FB12
:102330000300322303EB0010A0FB0101F02303EAAA
:102340005113206803EB0212C1F343111144816061
:10235000016921F490410161416921F02A01416143
:10236000C16841F40051C16000202021606484F8FC
:10237000411084F84210606310BD000070B586B053
:10238000006844F20041C4F200010026884205962C
:10239000CDE9036602963FD043F60001C4F2010185
:1023A000884266D141F21800C4F20200016840F68A
:1023B000000441F4804101600168C4F2010401F4A9
:1023C000804101910199016802AD41F00401016071
:1023D0000068294600F00400019001984FF4007055
:1023E000029002200390032005902046FEF79AFAFF
:1023F0004FF4806002900020CDE90300204629467A
:10240000FEF790FA252000210022FEF73DFD252051
:10241000FEF726FD06B070BD41F21800C4F20200BE
:10242000416840F6000441F4003141604168C4F263
:10243000010401F4003101910199016802AD41F0FC
:10244000040101600068294600F004000190019831
:102450000420029002200390032005902046FEF7FE
:1024600061FA0820CDE90206204629460496FEF7C7
:1024700059FA06B070BD00007047000070470000B8
:10248000FEE7000010B584B040F2700042F2004157
:10249000C2F20000C4F20101002201244FF46023C3
:1024A00004730275C361C0E9001282600461FDF724
:1024B000ABFF002818BFFDF7DBFE1120CDE90104BA
:1024C0000620039040F27000C2F2000001A9FDF75F
:1024D000D5FE002818BFFDF7CBFE04B010BD0000EC
:1024E00080B582B041F21400C4F2020001680022FB
:1024F00041F0010101600068002100F0010001903D
:1025000001980B20FEF7C0FC0B20FEF7A9FC0D2064
:1025100000210022FEF7B8FC0D20FEF7A1FC1120DF
:1025200000210022FEF7B0FC112002B0BDE880407F
:10253000FEF796BC2DE9F04784B041F21800C4F2D2
:102540000200016840F6000A41F0200101600168C4
:10255000C4F2010A01F020010091009901680122F2
:1025600041F0040101600168102601F004010091AE
:10257000009901684FF0010941F00801016000680D
:10258000102100F00800009000985046FEF7E0FA95
:102590000AF58065284607210122FEF7D9FA504640
:1025A0004FF4004100224FF400480027FEF7D0FA14
:1025B000CDE900696E4603245046314602970394E4
:1025C000FEF7B0F928463146CDE90049CDE902745D
:1025D000FEF7A8F90420CDE9000902242846314677
:1025E00002970394FEF79EF950463146CDE90089E3
:1025F000CDE90274FEF796F904B0BDE8F08700005B
:1026000080B540F26C1045F20041C2F20000C4F205
:10261000000148F2A06200234FF4804CC0F2010296
:1026200080E80E00C0E9033CC0E90533C0E9073388
:10263000FEF79AFA002808BF80BDBDE88040FDF78C
:1026400017BE000010B540F2C01043F20001C2F204
:102650000000C4F201014FF4827200234FF0020C1B
:102660004FF4007E082480E80E000A21C0E9033CF4
:10267000C0E9053EC461C0E90833C0E90A31FFF78B
:102680002DF8002808BF10BDBDE81040FDF7F0BDD3
:1026900080B586B040F2182040F200420021C2F21C
:1026A0000000C4F2000247234FF6FF7C0591CDE9FC
:1026B0000311CDE90011C0E90023C0E9021C01614A
:1026C0008161FFF70BF9002818BFFDF7D1FD4FF42A
:1026D0008050029040F21820C2F2000002A9FFF7D9
:1026E00097F9002818BFFDF7C3FD40F21820C2F289
:1026F00000006946FFF7B4F8002818BFFDF7B8FDE1
:1027000006B080BD80B540F2602043F60001C2F201
:102710000000C4F2010100234FF00C0C4FF4E13231
:1027200080E80E00C0E90333C0E905C3C361FFF7C9
:10273000B3FD002808BF80BDBDE88040FDF798BD0F
:1027400080B540F2A82044F20041C2F20000C4F279
:10275000000100234FF00C0C4FF4E13280E80E0032
:10276000C0E90333C0E905C3C361FFF795FD002845
:1027700008BF80BDBDE88040FDF77ABDFEE70000E0
:10278000FEE700007047000040F2C010C2F20000F7
:10279000FEF720BF406A0021C187C186FEF718BF3F
:1027A00070470000FEF7F4BA7047000040F21820AE
:1027B000C2F20000FFF7FCB9406A0021C185C18464
:1027C000FFF7B8BA81B090F84210222921D183686E
:1027D0000246B3F5805F09D152F8281F52F8183C21
:1027E000002B63D003685B680AE000BF52F8281F23
:1027F00013B90369002BF5D003685B6803F07F030E
:102800000B70116801311160C18D01390A04C18555
:1028100002D001B0704700BF0168CA6822F02002F0
:10282000CA60CA6822F48072CA604A6922F0010252
:102830004A61202180F8421000214163026B012A85
:102840003CD10163016851E8031F026821F01001C7
:1028500042E80313DBB1016851E8031F026821F06D
:10286000100142E8031393B1016851E8031F0268A5
:1028700021F0100142E803134BB1016851E8031F36
:10288000026821F0100142E80313002BDAD101683D
:102890000A68D20606D5002200920A6800924968AA
:1028A00000910099818D01B0FFF742BA0268526829
:1028B0006FF35F2221F8022B8162A5E701B0FFF7D9
:1028C000DBBD000040F26020C2F20000FFF734BA26
:1028D000FEE7000094B0FEF769FA00240120CDE97C
:1028E0000F44CDE90D440A900E904FF4E0104FF4E0
:1028F0008031022513900AA80494CDE90244CDE961
:102900000B14CDE91151FEF789FC28B1EFF31080CB
:1029100072B600BFFEE700BF0F20CDE905054FF4FA
:102920008060CDE9080405A802210794FEF76EFB3C
:1029300020B1EFF3108072B6FEE700BF02200190D5
:102940004FF40040039001A8FEF7DAFA20B1EFF34C
:10295000108072B6FEE700BFFFF7ECFDFFF7C0FD89
:10296000FFF796FEFFF76EFEFFF7CCFEFFF7E8FEDF
:10297000FFF788FDFFF744FE40F60044C4F201046F
:1029800020460421FEF7DCF8FA20FDF7B7FFF7E751
:10299000000000000000000001020304060708090F
:1029A00000000000010203040102020304050607FF
:1029B00008090A0B0C0D0E0F10100000E02900088A
:1029C000000000201000000028010008F029000885
:1029D00010000020E808000044010008000000008A
:1029E00001000000100000000024F40000000000BE
:04000005080000ED02
:00000001FF
